:1000000002048D7590FFC2A6C2A7224103A282E41A
:1000100033F542A280E433F543A281E433F544C3CF
:10002000E52694C8E525940050080526E5267002CB
:100030000525C3E52894C8E527940050080528E560
:100040002870020527C3E52A94C8E52994005008C2
:10005000052AE52A70020529E52264017054E5426B
:100060007050D3E5269405E52594004045E4F52538
:10007000F526E52B700F752B01F52DE5302533F5B1
:100080002C7194802D052DE52DC394034022E4F5B9
:100090002B916AAF0B7161AF0B74112FF8E6FFE57E
:1000A00015D39F400DAF0B74112FF8E6F5158002A4
:1000B0007194E52B70022159E52DC3940340022170
:1000C00059E52364017045E5437041E5289405E551
:1000D0002794004037E4F527F528E52D700AE53030
:1000E000946350220530801EE52DB4010BE533C327
:1000F000946350120533800EE52DB40209E530C338
:10010000946350020530E5302533F52CE524640175
:100110007047E5447043D3E52A9405E529940040EF
:1001200038E4F529F52AE52D700BE530D39401402C
:10013000221530801EE52DB4010BE533D394014028
:10014000121533800EE52DB40209E530D394014039
:10015000021530E5302533F52C8542228543238571
:10016000442422712E110DE52B603DE52D7005858F
:100170002C3E800DE52DB4010585333E800385308E
:100180003EE53E75F00A84F52FE53E75F00A84855C
:10019000F02EE52FD394094003752F09C2AF852FA8
:1001A00032852E31D2AF80BDC2AF850B3E85153F63
:1001B000D2AFE53E14601514601414601924037066
:1001C0001D853F40E53F2512F54180178008E53F3A
:1001D0002514F5408003853F40853F418005E4F5C7
:1001E00040F541E540D394094003754009E541D30A
:1001F00094094003754109C2AF854032854131D22F
:10020000AF2165C0E0C0F0C083C082C0D075D0000F
:10021000C000C001C002C003C004C005C006C007C2
:10022000758CA9758A6A0519E519700205180510FB
:10023000E5107002050FAD31AF32518BAE18AF191A
:100240007C007D21B19CED4C7002B2B6C3E51994DF
:1002500021E51894004019751800751900E52B70F8
:100260000FE515D3940040021515E515700271FCD9
:10027000D007D006D005D004D003D002D001D000E2
:10028000D0D0D082D083D0F0D0E032EFD3940940E8
:10029000027F09EDD3940940027D097590FFD2A633
:1002A000C2A774342FF8E6F590E4FFFEE4FAFB0BE6
:1002B000BB00010AEB64144A70F50FBF00010EEF9A
:1002C000641E4E70E77590FFC2A6D2A774342DF855
:1002D000E6F590E4FEFFE4FAFB0BBB00010AEB64D9
:1002E000144A70F50FBF00010EEF641E4E70E72236
:1002F000EFD3940940027F098F45E545D394004030
:1003000022AD45AF45518BE4F546AD45AF45518B28
:100310007F0A7E0091180546E546C3942140EB15FF
:100320004580D7E4FDFF518B7FD07E078118C2B690
:10033000C2B7C2A0C2A1C2A2C2A3C2A4C2A51103D5
:10034000E4F50BAF0B74112FF8E6F515E4F50CAFDF
:100350000B716171DC7D087F08518B7FE87E038122
:1003600018C2A0C2A1C2A2C2A3C2A4C2A5EF1460B7
:100370000F14601114601324037014D2A2D2A322AC
:10038000D2A1D2A322D2A0D2A522D2A0D2A422D27C
:10039000A0D2A322C2A0C2A1C2A2C2A3C2A4C2A5CB
:1003A000E52D14600C14600E2402700ED2A0D2A3AE
:1003B00022D2A1D2A422D2A2D2A522E515D394039F
:1003C0005016E51594004010750C01AE0FAF107C6F
:1003D000007DFAB19CED4C22E4F50C225389F043E8
:1003E0008901758CA9758A6AC28DD2A9D2B9D2AF9A
:1003F000D28CE4F518F519F50FF51022E50B04542D
:1004000003F50BAF0B74112FF8E6F515AF0B716107
:10041000E4F50CD2B7C2B722AD07AC06E4FBFAC3D1
:10042000EB9DEA9C500991770BBB00010A80F022FA
:10043000AC05A907900000AF01AD04518BA3E58284
:1004400064C8458370F1228F49E4F9E9C3954950A6
:10045000097FE87E0391180980F122EF1FAC067036
:10046000011E4C6004000080F22285301185331299
:100470008530138533142200007F027EC7DEFEDF45
:10048000FC22E4F547F54822AE47AF4822787FE4E6
:10049000F6D8FD7581490204D4020163E493A3F800
:1004A000E493A34003F68001F208DFF48029E4938B
:1004B000A3F85407240CC8C333C4540F4420C88382
:1004C0004004F456800146F6DFE4800B0102040884
:1004D00010204080900519E47E019360BCA3FF5476
:1004E0003F30E509541FFEE493A360010ECF54C0D2
:1004F00025E060A840B8E493A3FAE493A3F8E4935A
:10050000A3C8C582C8CAC583CAF0A3C8C582C8CA61
:10051000C583CADFE9DEE780BE0A34C0F9A4B0991A
:100520009282F88090013200013100012B00012DF0
:1005300000012C06013303013003012201012301D4
:100540000124010225000002270000022900000109
:100550002F00012E00010B00011503010C000218F1
:100560000000020F0000041103030303011702013E
:100570001600010803012106011B03011D03010DE3
:1005800006011A03011C03010A06010900021E00EC
:1005900000012000010E030247000000BC000BBE5A
:1005A0000029EF8DF084FFADF022E4CCF875F0085F
:1005B000EF2FFFEE33FEEC33FCEE9DEC984005FC94
:1005C000EE9DFE0FD5F0E9E4CEFD22EDF8F5F0EE5C
:1005D0008420D21CFEADF075F008EF2FFFED33FD47
:1005E0004007985006D5F0F222C398FD0FD5F0EAE7
:0105F00022E8
:00000001FF
