:07000000020350311280FEE3
:10000B00019EE5096002019DE50CD39400500201AD
:10001B009D150CE51514601514601414600F240362
:10002B00701B850C08E50C2512F51680108008E571
:10003B000C2511F5088003850C08850C16E50C7052
:10004B00510515E515C394044003E4F515E51514A6
:10005B00601214601A1460222403702785100C752B
:10006B000E02800685120C750E01E4F50D801485C9
:10007B000F0CE4F50E750D02800985110CE4F50EDD
:10008B00750D01E4FBAD0EFF317FE4FBAD0D7F0180
:10009B00317F22C0E0C0F0C0D075D000C000C004DA
:1000AB00C005C006C007758CA9758A6AC28CC2AF21
:1000BB000521E52170020520051AE51A70020519C4
:1000CB00AE20AF217C007D6471DCED4C7002B2B6CA
:1000DB0031BFC3E5219432E5209400401575200013
:1000EB00752100E51FD394004002151FE51F700218
:1000FB0051D6D2AFD28CD007D006D005D004D000C9
:10010B00D0D0D0F0D0E032C2B6C2B7C2A0C2A1C22A
:10011B00A2C2A3C2A4C2A5D2A0D2A1D2A2D2A3D260
:10012B00A4D2A5D2B6D2B7E4F522F523E4F524F593
:10013B00250525E525700205246464452470F20528
:10014B0023E52370020522B4E8E2E522B403DDC205
:10015B00A0C2A1C2A2C2A3C2A4C2A5C2B6C2B7E426
:10016B00F517AF17741B2FF8E6F51FE4F518AF174B
:10017B00513141B6EF701DC2A0C2A1C2A2EB7033C8
:10018B00ED14600A14600A24027028D2A022D2A1B6
:10019B0022D2A222BF011CC2A3C2A4C2A5EB701320
:1001AB00ED14600A14600A24027008D2A322D2A4B0
:1001BB0022D2A522E51FD394035032E51F940040B1
:1001CB002C751801AE19AF1A7C007DFA71DCED4C61
:1001DB00701EE51714600D14600D14600D24037070
:1001EB000FB2A222B2A122B2A522B2A422E4F51828
:1001FB0022EF7015ED600C146006147009AF10221D
:10020B00AF1222AF0B22AF0B22EF64017015ED6022
:10021B000C146006147009AF0F22AF1122AF0A2223
:10022B00AF0A227F0322C2A0C2A1C2A2C2A3C2A450
:10023B00C2A5EF14600F1460111460132403701423
:10024B00D2A2D2A322D2A1D2A322D2A0D2A522D2B1
:10025B00A0D2A422D2A0D2A3228F268D27E526706E
:10026B000A85270EFF31FC8F088010E526B4010BA1
:10027B0085270DAD277F0131FC8F16E4FBAD27AF32
:10028B0026217FE4F51585100C750E02851008F5F7
:10029B000DE5102512F516E4F509F513F514FB7DA4
:1002AB0002FF317FE4FBFD7F01217F5389F04389FE
:1002BB0001758CA9758A6AC28DD2A9D2B9D2AFD277
:1002CB008CE4F520F521F519F51A22E517045403F2
:1002DB00F517AF17741B2FF8E6F51FAF175131E465
:1002EB00F518D2B7C2B7220514E51470020513C373
:1002FB009432E51394004005E4F513F51422E50E52
:10030B00B40206740A2508F508E50DB40206740A52
:10031B002516F51622EF60091460091470067F018B
:10032B00227F02227F0022EF7003AF0822BF01035E
:10033B00AF16227F0022EF7003AF0E22BF0103AF77
:10034B000D227F0022787FE4F6D8FD75812702030A
:10035B0097020003E493A3F8E493A34003F6800110
:10036B00F208DFF48029E493A3F85407240CC8C3E4
:10037B0033C4540F4420C8834004F456800146F61E
:10038B00DFE4800B0102040810204080900431E46C
:10039B007E019360BCA3FF543F30E509541FFEE47C
:1003AB0093A360010ECF54C025E060A840B8E4933E
:1003BB00A3FAE493A3F8E493A3C8C582C8CAC58380
:1003CB00CAF0A3C8C582C8CAC583CADFE9DEE78005
:1003DB00BEBC000BBE0029EF8DF084FFADF022E414
:1003EB00CCF875F008EF2FFFEE33FEEC33FCEE9DEF
:1003FB00EC984005FCEE9DFE0FD5F0E9E4CEFD2216
:10040B00EDF8F5F0EE8420D21CFEADF075F008EFA0
:10041B002FFFED33FD4007985006D5F0F222C3981D
:10042B00FD0FD5F0EA22011700011F05011800028C
:10043B0020000002190000041B05030503010E0236
:10044B00010D000108030116030110030112030142
:10045B000B03010F03011103010A0301090002132E
:09046B000000011500010C030062
:00000001FF
