:10000000020BDFC29378277401F2220200D078221B
:10001000EDF218EFF2D2A675F00A84FFD3940940EE
:10002000027F09740D2FF8E2F5807F017E00120235
:1000300010C2A6D2A77821E275F00A84AFF0740D41
:100040002FF8E2F5807F017E00120210C2A7D2B025
:100050007822E275F00A84FFD3940940027F097484
:100060000D2FF8E2F5807F017E00120210C2B0224F
:100070007801E2705A18E2D394004025E214F2E2CB
:10008000701F7805E2FF1202FF7805EFF2FDE4FF32
:1000900012016B7800EFF27805E2FDE4FBFF12013C
:1000A0002A780CE2D394004026E214F2E270207821
:1000B00004E2FF1202FF7804EFF2FD7F0112016BF0
:1000C000780CEFF27804E2FDE4FB7F0112012A22B2
:1000D000C0E0C0D075D000C000758CFC758A667811
:1000E0001A7401F2781CE204F2E2C3940A4005E4B7
:1000F000F20804F2781EE204F2E2C394644006E4DB
:10010000F2781704F27819E22401F218E23400F2CE
:10011000C308E294E818E294034008E4F208F27895
:100120001B04F2D000D0D0D0E032EF701DC2A0C2CC
:10013000A1C2A2EB7034ED14600A14600A240270AC
:1001400029D2A022D2A122D2A222EFB4011CC2A3A2
:10015000C2A4C2A5EB7013ED14600A14600A240255
:100160007008D2A322D2A422D2A522EF701AED6089
:100170001014600814700C7807E2FF227809E2FF7F
:100180002280007803E2FF22EF6401701AED601014
:1001900014600814700C7806E2FF227808E2FF224F
:1001A00080007802E2FF227F21227824EDF218EF0E
:1001B000F2701108E2FD7805F2E4FF12016B78009D
:1001C000EFF280157823E2B4010F08E2FD7804F223
:1001D0007F0112016B780CEFF27823E2FF08E2FD59
:1001E000E4FB02012A78057402F27800741EF2E43E
:1001F0007804F2780C7421F2E47801F2780AF208BB
:10020000F2FB7D02FF12012AE4FBFD7F0102012ABD
:10021000E4FDFCC3ED9FEC9E5016E4FBFA000BBB23
:1002200000010AEB647B4A70F40DBD00010C80E311
:10023000222092197F147E0012021020920F1202C7
:10024000842092097F0A7E0012021080F42212029A
:10025000D9E4781AF2781DF27817F2781BF208F2D6
:10026000781EF27818F208F222780BE22401F218D4
:10027000E23400F2C308E2943218E294004004E44D
:10028000F208F2227805E2B402067800E2240AF2CB
:100290007804E2B40206780CE2240AF222EF700538
:1002A0007800E2FF22EFB40105780CE2FF227F0024
:1002B00022EF70057805E2FF22EFB401057804E231
:1002C000FF227F0022C2AF12024E12000312034926
:1002D0001201E5120359D2AF225389F04389017507
:1002E0008CFC758A66D2A9D2AFD28C22E4FDFCC305
:1002F000ED9FEC9E5008000DBD00010C80F122EF37
:1003000060091460091470067F01227F02227F00B9
:10031000227827E2600BD2937F647E00120210C223
:100320009322781BE26005E4F27F01227F002278AD
:1003300017E26005E4F27F01227F0022781DE2606F
:1003400005E4F27F01227F0022E4F580C2A6C2A765
:10035000C2B0221202C5020800D29222811A008184
:100360001D00811700811B00811C00811E00821866
:1003700000008127018A0D3F065B4F666D7D077F78
:100380006F81050281040081001E810C2181071EFE
:1003900081090381032181061E81080381022181D5
:0B03A0000100820A0000822500FA0024
:10080000120322EF601C120070E4FF12029D781F99
:10081000EFF27F0112029D7820EFF2FD18E2FF1245
:10082000000E12032FEF6033120269E4FF12029DE3
:10083000781FEFF27F0112029D7820EFF218E2FF9D
:10084000D394035005EF9400500E7820E2FFD39428
:10085000035008EF9400400312031112033CEF60B1
:100860001F1202312092197F147E00120210209272
:100870000F1202842092097F0A7E0012021080F477
:090880007F057E00120210010048
:100BDF00787FE4F6D8FD758107020C26020353E4F3
:100BEF0093A3F8E493A34003F68001F208DFF480A7
:100BFF0029E493A3F85407240CC8C333C4540F44F7
:100C0F0020C8834004F456800146F6DFE4800B01D0
:100C1F000204081020408090035CE47E019360BCC6
:100C2F00A3FF543F30E509541FFEE493A360010E68
:100C3F00CF54C025E060A840B8E493A3FAE493A38F
:100C4F00F8E493A3C8C582C8CAC583CAF0A3C8C5B0
:0C0C5F0082C8CAC583CADFE9DEE780BE98
:00000001FF
