:07000000020174116B80FE88
:10000B00010DC0E0C0F0C0D075D000C000C004C06E
:10001B0005C006C007758CA9758A6AC28CC2AF056C
:10002B0012E51270020511050BE50B7002050AAE05
:10003B0011AF127C007D645100ED4C700EB2B6E531
:10004B00A0700575A0FF800375A000D2AFD28CD035
:10005B0007D006D005D004D000D0D0D0F0D0E032FD
:10006B00C2B6C2B7E4F5A0F51375A03FD2B6D2B7AE
:10007B00F514F515E4F516F5170517E517700205D8
:10008B00166464451670F20515E51570020514B477
:10009B00E8E2E514B403DDE4F5A0C2B6C2B7F5138C
:1000AB00F508AF08740C2FF8E6F510E4F509AF0866
:1000BB00310C2138E510D394035042E510940040E5
:1000CB003C750901AE0AAF0B7C007DFA5100ED4C7B
:1000DB00702EF518E50814600F14601114601324CA
:1000EB00037012751804800D75180280087518209E
:1000FB008003751810E51862138513A022E4F50927
:10010B0022E4F513EF14600F146011146013240331
:10011B00701475130C801275130A800D75132180E2
:10012B000875131180037513098513A0225389F0E9
:10013B00438901758CA9758A6AC28DD2A9D2B9D2AD
:10014B00AFD28CE4F511F512F50AF50B22E5080494
:10015B005403F508AF08740C2FF8E6F510AF08310F
:10016B000CE4F509D2B7C2B722787FE4F6D8FD7557
:10017B0081180201BB020003E493A3F8E493A340AC
:10018B0003F68001F208DFF48029E493A3F8540707
:10019B00240CC8C333C4540F4420C8834004F45602
:1001AB00800146F6DFE4800B01020408102040803A
:1001BB00900255E47E019360BCA3FF543F30E509E8
:1001CB00541FFEE493A360010ECF54C025E060A83A
:1001DB0040B8E493A3FAE493A3F8E493A3C8C582CD
:1001EB00C8CAC583CAF0A3C8C582C8CAC583CADF3B
:1001FB00E9DEE780BEBC000BBE0029EF8DF084FF6B
:10020B00ADF022E4CCF875F008EF2FFFEE33FEECE7
:10021B0033FCEE9DEC984005FCEE9DFE0FD5F0E90E
:10022B00E4CEFD22EDF8F5F0EE8420D21CFEADF00D
:10023B0075F008EF2FFFED33FD4007985006D5F012
:10024B00F222C398FD0FD5F0EA2201080001101924
:10025B0001090002110000020A0000011300040C46
:05026B00190319030056
:00000001FF
