:100000000202BC7590FFC2A6C2A722010DC0E0C0CB
:10001000F0C083C082C0D075D000C000C001C00253
:10002000C003C004C005C006C007758CA9758A6AE4
:100030000519E519700205180510E5107002050F85
:10004000AD30AF311191AE18AF197C007D2171A197
:10005000ED4C7002B2B6C3E5199421E51894004046
:1000600015751800751900E515D394004002151593
:10007000E51570025138D007D006D005D004D00362
:10008000D002D001D000D0D0D082D083D0F0D0E048
:1000900032EFD3940940027F09EDD3940940027DE9
:1000A000097590FFD2A6C2A774222FF8E6F590E456
:1000B000FFFEE4FAFB0BBB00010AEB64144A70F587
:1000C0000FBF00010EEF641E4E70E77590FFC2A6D1
:1000D000D2A774222DF8E6F590E4FEFFE4FAFB0BBC
:1000E000BB00010AEB64144A70F50FBF00010EEF6C
:1000F000641E4E70E7223191C2AF850B2C85152D01
:10010000D2AFE52C14601514601414601924037028
:100110001D852D2EE52D2512F52F80178008E52D44
:100120002514F52E8003852D2E852D2F8005E4F5D1
:100130002EF52FE52ED394094003752E09E52FD314
:1001400094094003752F09C2AF852E31852F30D217
:10015000AF80A5EFD3940940027F098F32E532D3F7
:1001600094004022AD32AF321191E4F533AD32AF9D
:100170003211917F0A7E0051540533E533C3942137
:1001800040EB153280D7E4FDFF11917FD07E07410F
:1001900054C2B6C2B7C2A0C2A1C2A2C2A3C2A4C264
:1001A000A51103E4F50BAF0B74112FF8E6F515E478
:1001B000F50CAF0B31C451187D087F0811917FE811
:1001C0007E034154C2A0C2A1C2A2C2A3C2A4C2A5BE
:1001D000EF14600F14601114601324037014D2A282
:1001E000D2A322D2A1D2A322D2A0D2A522D2A0D21F
:1001F000A422D2A0D2A322E515D394035016E5156C
:1002000094004010750C01AE0FAF107C007DFA71A8
:10021000A1ED4C22E4F50C225389F0438901758C41
:10022000A9758A6AC28DD2A9D2B9D2AFD28CE4F5AF
:1002300018F519F50FF51022E50B045403F50BAF73
:100240000B74112FF8E6F515AF0B31C4E4F50CD2A1
:10025000B7C2B722AD07AC06E4FBFAC3EB9DEA9C3C
:10026000500951A60BBB00010A80F022AC05A9077A
:10027000900000AF01AD041191A3E58264C84583ED
:1002800070F1228F36E4F9E9C3953650097FE87E94
:100290000351540980F122EF1FAC0670011E4C601F
:1002A00004000080F22200007F027EC7DEFEDFFC39
:1002B00022E4F534F53522AE34AF3522787FE4F60A
:1002C000D8FD7581360203030200F6E493A3F8E437
:1002D00093A34003F68001F208DFF48029E493A39E
:1002E000F85407240CC8C333C4540F4420C88340B7
:1002F00004F456800146F6DFE4800B010204081086
:10030000204080900348E47E019360BCA3FF543FEB
:1003100030E509541FFEE493A360010ECF54C025BD
:10032000E060A840B8E493A3FAE493A3F8E493A3AD
:10033000C8C582C8CAC583CAF0A3C8C582C8CAC511
:1003400083CADFE9DEE780BE0A22C0F9A4B0999231
:1003500082F88090013100013000010B000115038B
:10036000010C0002180000020F0000041103030337
:1003700003011702011600010803012106011B03F6
:10038000011D03010D06011A03011C03010A0601E8
:100390000900021E0000012000010E0302340000CB
:1003A00000BC000BBE0029EF8DF084FFADF022E40D
:1003B000CCF875F008EF2FFFEE33FEEC33FCEE9D2A
:1003C000EC984005FCEE9DFE0FD5F0E9E4CEFD2251
:1003D000EDF8F5F0EE8420D21CFEADF075F008EFDC
:1003E0002FFFED33FD4007985006D5F0F222C39859
:0603F000FD0FD5F0EA222A
:00000001FF
