:0300000002029069
:10000B0001A6A905D2A6EF75F00A84FED394094088
:10001B00027E0974222EF8E6F590E4FDFC0DBD007E
:10002B00010CED64644C70F5E4FBFA0BBB00010AA8
:10003B00EB64644A70F5C2A6D2A7EF75F00A84AEE2
:10004B00F074222EF8E6F590E4FCFDE4FAFB0BBB12
:10005B0000010AEB64644A70F50DBD00010CED6400
:10006B00644C70E7C2A7D2B0E975F00A84FED39452
:10007B000940027E0974222EF8E6F590E4FCFDE4BB
:10008B00FAFB0BBB00010AEB64644A70F50DBD0073
:10009B00010CED64644C70E7C2B022C0E0C0F0C04C
:1000AB00D075D000C000C004C005C006C007758C59
:1000BB00A9758A6AC28CC2AF0519E51970020518B9
:1000CB000510E5107002050FAE18AF197C007D64AA
:1000DB007175ED4C7002B2B631DAC3E5199432E5A5
:1000EB001894004015751800751900E515D3940088
:1000FB0040021515E5157002516AD2AFD28CD007AC
:10010B00D006D005D004D000D0D0D0F0D0E032C291
:10011B00B6C2B7C2A0C2A1C2A2C2A3C2A4C2A5D278
:10012B00A0D2A1D2A2D2A3D2A4D2A5D2B6D2B7E4E6
:10013B00F530F531E4F532F5330533E5337002056F
:10014B00326464453270F20531E53170020530B42A
:10015B00E8E2E530B403DDC2A0C2A1C2A2C2A3C2D1
:10016B00A4C2A5C2B6C2B7E4F50BAF0B74112FF83E
:10017B00E6F515E4F50CAF0B51175186414A311AD0
:10018B00052DE52D7002052CC39464E52C940040DD
:10019B00EFE4F52CF52DE50B1460151460141460C9
:1001AB00192403701D85152FE5152512F52E8017C3
:1001BB008008E5152514F52F800385152F85152E41
:1001CB008005E4F52FF52EAD2EAF2F110D80B1E587
:1001DB0015D394035032E5159400402C750C01AEE9
:1001EB000FAF107C007DFA7175ED4C701EE50B1492
:1001FB00600D14600D14600D2403700FB2A222B2B7
:10020B00A122B2A522B2A422E4F50C22C2A0C2A163
:10021B00C2A2C2A3C2A4C2A5EF14600F1460111432
:10022B00601324037014D2A2D2A322D2A1D2A32290
:10023B00D2A0D2A522D2A0D2A422D2A0D2A3225342
:10024B0089F0438901758CA9758A6AC28DD2A9D2AE
:10025B00B9D2AFD28CE4F518F519F50FF51022E5EC
:10026B000B045403F50BAF0B74112FF8E6F515AF18
:10027B000B5117E4F50CD2B7C2B722E4F590C2A626
:10028B00C2A7C2B022787FE4F6D8FD758133020293
:10029B00D7020189E493A3F8E493A34003F680010A
:1002AB00F208DFF48029E493A3F85407240CC8C3A5
:1002BB0033C4540F4420C8834004F456800146F6DF
:1002CB00DFE4800B010204081020408090031CE443
:1002DB007E019360BCA3FF543F30E509541FFEE43D
:1002EB0093A360010ECF54C025E060A840B8E493FF
:1002FB00A3FAE493A3F8E493A3C8C582C8CAC58341
:10030B00CAF0A3C8C582C8CAC583CADFE9DEE780C5
:10031B00BE0A223F065B4F666D7D077F6F012F0084
:10032B00012E00022C0000010B00011505010C0031
:10033B0002180000020F000004110503050301174A
:10034B0002011600010803012103011B03011D0318
:10035B00010D03011A03011C03010A030109000229
:10036B001E0000012000010E0300BC000BBE002983
:10037B00EF8DF084FFADF022E4CCF875F008EF2F91
:10038B00FFEE33FEEC33FCEE9DEC984005FCEE9D4E
:10039B00FE0FD5F0E9E4CEFD22EDF8F5F0EE84206A
:1003AB00D21CFEADF075F008EF2FFFED33FD4007CB
:0F03BB00985006D5F0F222C398FD0FD5F0EA2234
:00000001FF
