:100000000202BB7590FFC2A6C2A722010DC0E0C0CC
:10001000F0C0D075D000C000C004C005C006C00745
:10002000758CA9758A6AC28CC2AF0519E519700270
:1000300005180510E5107002050FAE18AF197C0009
:100040007D2171A0ED4C7002B2B6C3E5199421E593
:100050001894004015751800751900E515D3940023
:1000600040021515E5157002514ED2AFD28CD00763
:10007000D006D005D004D000D0D0D0F0D0E032C22D
:10008000B6C2B7C2A0C2A1C2A2C2A3C2A4C2A511D5
:10009000037D097F0911E87FF47E01516A7F0331F6
:1000A0009CD2A0D2A1D2A2D2A3D2A4D2A5D2B6D29F
:1000B000B77FE87E03516AC2A0C2A1C2A2C2A3C296
:1000C000A4C2A5C2B6C2B7E4F50BAF0B74112FF8EA
:1000D000E6F515E4F50CAF0B31DA512E7D087F08FB
:1000E00011E87F887E13416AEFD3940940027F09AB
:1000F000EDD3940940027D097590FFC2A6C2A77492
:10010000222FF8E6F590E4FFFEE4FAFB0BBB0001BA
:100110000AEB640A4A70F50FBF00010EEF640A4E45
:1001200070E77590FFD2A6C2A774222DF8E6F5906D
:10013000E4FEFFE4FAFB0BBB00010AEB640A4A7021
:10014000F50FBF00010EEF640A4E70E722117FE544
:100150000B1460151460141460192403701D8515A8
:100160002DE5152512F52C80178008E5152514F5C9
:100170002D800385152D85152C8005E4F52DF52C96
:10018000E52DD394094003752D09E52CD39409403E
:1001900003752C09AD2CAF2D11E880B3EFD3940972
:1001A00040027F098F30E530D394004022AD30AF5C
:1001B0003011E8E4F531AD30AF3011E87F0A7E0050
:1001C000516A0531E531C3946440EB153080D7E4C2
:1001D000FDFF11E87FD07E07416AC2A0C2A1C2A282
:1001E000C2A3C2A4C2A5EF14600F1460111460135F
:1001F00024037014D2A2D2A322D2A1D2A322D2A0CD
:10020000D2A522D2A0D2A422D2A0D2A322E515D375
:1002100094035016E51594004010750C01AE0FAF15
:10022000107C007DFA71A0ED4C22E4F50C2253897C
:10023000F0438901758CA9758A6AC28DD2A9D2B999
:10024000D2AFD28CE4F518F519F50FF51022E50BB5
:10025000045403F50BAF0B74112FF8E6F515AF0B33
:1002600031DAE4F50CD2B7C2B722AD07AC06E4FB35
:10027000FAC3EB9DEA9C500951A50BBB00010A8013
:10028000F0228F32E4F9E9C3953250097FE87E030A
:10029000516A0980F122EF1FAC0670011E4C600408
:1002A000000080F22200007F027EC7DEFEDFFC221B
:1002B000E4F52EF52F22AE2EAF2F22787FE4F6D86C
:1002C000FD75813202030202014DE493A3F8E49329
:1002D000A34003F68001F208DFF48029E493A3F839
:1002E0005407240CC8C333C4540F4420C8834004AB
:1002F000F456800146F6DFE4800B0102040810206A
:100300004080900347E47E019360BCA3FF543F30DC
:10031000E509541FFEE493A360010ECF54C025E00D
:1003200060A840B8E493A3FAE493A3F8E493A3C8C5
:10033000C582C8CAC583CAF0A3C8C582C8CAC58356
:10034000CADFE9DEE780BE0A22C0F9A4B099928232
:10035000F88090012D00012C00010B000115030114
:100360000C0002180000020F000004110303030335
:10037000011702011600010803012106011B0301F8
:100380001D03010D06011A03011C03010A060109E0
:1003900000021E0000012000010E03022E000000DA
:1003A000BC000BBE0029EF8DF084FFADF022E4CC41
:1003B000F875F008EF2FFFEE33FEEC33FCEE9DEC0A
:1003C000984005FCEE9DFE0FD5F0E9E4CEFD22ED50
:1003D000F8F5F0EE8420D21CFEADF075F008EF2F9A
:1003E000FFED33FD4007985006D5F0F222C398FD8B
:0503F0000FD5F0EA2228
:00000001FF
