:0300000002023ABF
:10000B00010DC0E0C0F0C0D075D000C000C004C06E
:10001B0005C006C007758CA9758A6AC28CC2AF056C
:10002B0019E519700205180510E5107002050FAEE1
:10003B0018AF197C007D64711FED4C7002B2B631A4
:10004B0084C3E5199432E5189400401575180075B2
:10005B001900E515D3940040021515E515700251F2
:10006B0014D2AFD28CD007D006D005D004D000D09C
:10007B00D0D0F0D0E032C2B6C2B7C2A0C2A1C2A2E9
:10008B00C2A3C2A4C2A5D2A0D2A1D2A2D2A3D2A4EF
:10009B00D2A5D2B6D2B7E4F530F531E4F532F5336B
:1000AB000533E533700205326464453270F2053175
:1000BB00E53170020530B4E8E2E530B403DDC2A0EF
:1000CB00C2A1C2A2C2A3C2A4C2A5C2B6C2B7E4F562
:1000DB000BAF0B74112FF8E6F515E4F50CAF0B31E4
:1000EB00C1513021F41181052DE52D7002052CC372
:1000FB009464E52C940040EFE4F52CF52DE50B14FE
:10010B0060151460141460192403701D85152FE5F8
:10011B00152512F52E80178008E5152514F52F806F
:10012B000385152F85152E8005E4F52FF52EAD2EA5
:10013B00AF2F314180B1D2A6EF75F00A84FED39474
:10014B000940027E0974222EF8E6F580C2A6D2A7DA
:10015B00EF75F00A84AEF074222EF8E6F580C2A794
:10016B00D2B0ED75F00A84FED3940940027E097477
:10017B00222EF8E6F580C2B022E515D39403503257
:10018B00E5159400402C750C01AE0FAF107C007D73
:10019B00FA711FED4C701EE50B14600D14600D14FD
:1001AB00600D2403700FB2A222B2A122B2A522B21B
:1001BB00A422E4F50C22C2A0C2A1C2A2C2A3C2A473
:1001CB00C2A5EF14600F1460111460132403701494
:1001DB00D2A2D2A322D2A1D2A322D2A0D2A522D222
:1001EB00A0D2A422D2A0D2A3225389F043890175B5
:1001FB008CA9758A6AC28DD2A9D2B9D2AFD28CE43E
:10020B00F518F519F50FF51022E50B045403F50B52
:10021B00AF0B74112FF8E6F515AF0B31C1E4F50CEC
:10022B00D2B7C2B722E4F580C2A6C2A7C2B0227869
:10023B007FE4F6D8FD7581330202810200F0E4936E
:10024B00A3F8E493A34003F68001F208DFF48029BE
:10025B00E493A3F85407240CC8C333C4540F4420AD
:10026B00C8834004F456800146F6DFE4800B01029C
:10027B000408102040809002C6E47E019360BCA36A
:10028B00FF543F30E509541FFEE493A360010ECFEA
:10029B0054C025E060A840B8E493A3FAE493A3F814
:1002AB00E493A3C8C582C8CAC583CAF0A3C8C582D4
:1002BB00C8CAC583CADFE9DEE780BE0A223F065BF8
:1002CB004F666D7D077F6F012F00012E00022C0002
:1002DB0000010B00011505010C0002180000020FB4
:1002EB0000000411050305030117020116000108A4
:1002FB0003012103011B03011D03010D03011A035C
:10030B00011C03010A03010900021E000001200069
:10031B00010E0300BC000BBE0029EF8DF084FFAD76
:10032B00F022E4CCF875F008EF2FFFEE33FEEC3340
:10033B00FCEE9DEC984005FCEE9DFE0FD5F0E9E43C
:10034B00CEFD22EDF8F5F0EE8420D21CFEADF0755B
:10035B00F008EF2FFFED33FD4007985006D5F0F274
:09036B0022C398FD0FD5F0EA222F
:00000001FF
