:100000000202C17590FFC2A6C2A722010DC0E0C0C6
:10001000F0C0D075D000C000C004C005C006C00745
:10002000758CA9758A6AC28CC2AF0519E519700270
:1000300005180510E5107002050FAE18AF197C0009
:100040007D6471A6ED4C7002B2B6C3E51994F4E577
:100050001894014015751800751900E515D3940022
:1000600040021515E5157002514CD2AFD28CD00765
:10007000D006D005D004D000D0D0D0F0D0E032C22D
:10008000B6C2B7C2A0C2A1C2A2C2A3C2A4C2A511D5
:10009000037D097F0911E67FF47E0151807F0331E2
:1000A0009AD2A0D2A1D2A2D2A3D2A4D2A5D2B6D2A1
:1000B000B77F015194C2A0C2A1C2A2C2A3C2A4C26E
:1000C000A5C2B6C2B7E4F50BAF0B74112FF8E6F575
:1000D00015E4F50CAF0B31D8512C7D087F0811E6E3
:1000E0007FF47E014180EFD3940940027F09EDD374
:1000F000940940027D097590FFC2A6C2A774222F01
:10010000F8E6F590E4FFFEE4FAFB0BBB00010AEB16
:1001100064644A70F50FBF00010EEF64644E70E72F
:100120007590FFD2A6C2A774222DF8E6F590E4FEE2
:10013000FFE4FAFB0BBB00010AEB64644A70F50FA5
:10014000BF00010EEF64644E70E722117FE50B14CF
:1001500060151460141460192403701D85152DE5B5
:10016000152512F52C80178008E5152514F52D802E
:100170000385152D85152C8005E4F52DF52CE52D31
:10018000D394094003752D09E52CD39409400375D8
:100190002C09AD2CAF2D11E680B3EFD394094002AA
:1001A0007F098F30E530D394004022AD30AF30115D
:1001B000E6E4F531AD30AF3011E67F0A7E005180C4
:1001C0000531E531C3946440EB153080D7E4FDFF81
:1001D00011E67FD07E074180C2A0C2A1C2A2C2A305
:1001E000C2A4C2A5EF14600F14601114601324039D
:1001F0007014D2A2D2A322D2A1D2A322D2A0D2A57D
:1002000022D2A0D2A422D2A0D2A322E515D3940355
:100210005016E51594004010750C01AE0FAF107C20
:10022000007DFA71A6ED4C22E4F50C225389F043CF
:100230008901758CA9758A6AC28DD2A9D2B9D2AF4B
:10024000D28CE4F518F519F50FF51022E50B0454DE
:1002500003F50BAF0B74112FF8E6F515AF0B31D882
:10026000E4F50CD2B7C2B72253890F438910758DBC
:10027000FC758B66C28FD28E308FFDC28EC28F22EC
:10028000E4FDFCC3ED9FEC9E500951680DBD0001DB
:100290000C80F022AB07E4FAEAC39B50097FE87EAA
:1002A0000351800A80F222EF1FAC0670011E4C60E1
:1002B00004000080F222E4F52EF52F22AE2EAF2F9F
:1002C00022787FE4F6D8FD75813102030802014BE4
:1002D000E493A3F8E493A34003F68001F208DFF46B
:1002E0008029E493A3F85407240CC8C333C4540FE3
:1002F0004420C8834004F456800146F6DFE4800BB6
:10030000010204081020408090034DE47E019360B8
:10031000BCA3FF543F30E509541FFEE493A36001E2
:100320000ECF54C025E060A840B8E493A3FAE4934C
:10033000A3F8E493A3C8C582C8CAC583CAF0A3C8FA
:10034000C582C8CAC583CADFE9DEE780BE0A22C00B
:10035000F9A4B0999282F88090012D00012C00013F
:100360000B00011503010C0002180000020F000031
:10037000041103030303011702011600010803011E
:100380002106011B03011D03010D06011A03011CB7
:1003900003010A06010900021E0000012000010EEF
:1003A00003022E000000BC000BBE0029EF8DF0847C
:1003B000FFADF022E4CCF875F008EF2FFFEE33FE2E
:1003C000EC33FCEE9DEC984005FCEE9DFE0FD5F065
:1003D000E9E4CEFD22EDF8F5F0EE8420D21CFEAD6E
:1003E000F075F008EF2FFFED33FD4007985006D56C
:0B03F000F0F222C398FD0FD5F0EA22C6
:00000001FF
