:100000000204677590FFC2A6C2A72221DDA282E486
:1000100033F53EA280E433F53FA281E433F540C3DB
:10002000E52694C8E525940050080526E5267002CB
:100030000525E52264017054E53E7050D3E5269411
:1000400005E52594004045E4F525F526E527700FE4
:10005000752701F529E52C252FF528716E802D05D2
:1000600029E529C394034022E4F5279144AF0B719D
:100070003BAF0B74112FF8E6FFE515D39F400DAF92
:100080000B74112FF8E6F5158002716EE5277002EA
:100090002133E529C3940340022133E52364017031
:1000A00045E53F7041E5269405E52594004037E499
:1000B000F525F526E529700AE52C94635022052CD8
:1000C000801EE529B4010BE52FC394635012052F60
:1000D000800EE529B40209E52CC394635002052C77
:1000E000E52C252FF528E52464017047E540704391
:1000F000D3E5269405E52594004038E4F525F5265A
:10010000E529700BE52CD394054022152C801EE5C3
:1001100029B4010BE52FD394054012152F800EE56D
:1001200029B40209E52CD394054002152CE52C25B1
:100130002FF528853E22853F238540242271081112
:100140000DE527603DE529700585283A800DE529F4
:10015000B40105852F3A8003852C3AE53A75F00AFB
:1001600084F52BE53A75F00A8485F02AE52BD394C3
:10017000094003752B09C2AF852B2E852A2DD2AFDE
:1001800080BDC2AF850B3A85153BD2AFE53A14600E
:10019000151460141460192403701D853B3CE53B65
:1001A0002512F53D80178008E53B2514F53C8003BA
:1001B000853B3C853B3D8005E4F53CF53DE53CD386
:1001C00094094003753C09E53DD394094003753D0E
:1001D00009C2AF853C2E853D2DD2AF213FC0E0C086
:1001E000F0C083C082C0D075D000C000C001C00282
:1001F000C003C004C005C006C007758CA9758A6A13
:100200000519E519700205180510E5107002050FB3
:10021000AD2DAF2E5165AE18AF197C007D21B16EAA
:10022000ED4C7002B2B6C3E5199421E51894004074
:1002300019751800751900E527700FE515D394009E
:1002400040021515E515700271D6D007D006D0050D
:10025000D004D003D002D001D000D0D0D082D0833F
:10026000D0F0D0E032EFD3940940027F09EDD3946F
:100270000940027D097590FFD2A6C2A774302FF8FD
:10028000E6F590E4FFFEE4FAFB0BBB00010AEB6429
:10029000144A70F50FBF00010EEF641E4E70E77533
:1002A00090FFC2A6D2A774302DF8E6F590E4FEFFC9
:1002B000E4FAFB0BBB00010AEB64144A70F50FBFB4
:1002C00000010EEF641E4E70E722EFD39409400246
:1002D0007F098F41E541D394004022AD41AF4151A8
:1002E00065E4F542AD41AF4151657F0A7E0071F290
:1002F0000542E542C3942140EB154180D7E4FDFF60
:1003000051657FD07E0761F2C2B6C2B7C2A0C2A15A
:10031000C2A2C2A3C2A4C2A51103E4F50BAF0B7421
:10032000112FF8E6F515E4F50CAF0B713B71B67DB6
:10033000087F0851657FE87E0361F2C2A0C2A1C2B6
:10034000A2C2A3C2A4C2A5EF14600F14601114606E
:100350001324037014D2A2D2A322D2A1D2A322D2F8
:10036000A0D2A522D2A0D2A422D2A0D2A322C2A0DF
:10037000C2A1C2A2C2A3C2A4C2A5E52914600C14E2
:10038000600E2402700ED2A0D2A322D2A1D2A42247
:10039000D2A2D2A522E515D394035016E5159400F8
:1003A0004010750C01AE0FAF107C007DFAB16EED00
:1003B0004C22E4F50C225389F0438901758CA97510
:1003C0008A6AC28DD2A9D2B9D2AFD28CE4F518F51F
:1003D00019F50FF51022E50B045403F50BAF0B7460
:1003E000112FF8E6F515AF0B713BE4F50CD2B7C24F
:1003F000B722AD07AC06E4FBFAC3EB9DEA9C5009BB
:1004000091510BBB00010A80F022AC05A9079000B6
:1004100000AF01AD045165A3E58264C8458370F166
:10042000228F45E4F9E9C3954550097FE87E0371C1
:10043000F20980F122EF1FAC0670011E4C6004002F
:100440000080F222852C11852F12852C13852F1404
:100450002200007F027EC7DEFEDFFC22E4F543F5CA
:100460004422AE43AF4422787FE4F6D8FD7581453F
:100470000204AE02013DE493A3F8E493A34003F623
:100480008001F208DFF48029E493A3F85407240CD8
:10049000C8C333C4540F4420C8834004F4568001B9
:1004A00046F6DFE4800B010204081020408090042F
:1004B000F3E47E019360BCA3FF543F30E509541F71
:1004C000FEE493A360010ECF54C025E060A840B8BD
:1004D000E493A3FAE493A3F8E493A3C8C582C8CA3B
:1004E000C583CAF0A3C8C582C8CAC583CADFE9DE0E
:1004F000E780BE0A30C0F9A4B0999282F8809001DA
:100500002E00012D00012700012900012806012FDE
:1005100003012C0301220101230101240102250012
:1005200000012B00012A00010B00011503010C0042
:1005300002180000020F0000041103030303011757
:1005400002011600010803012106011B03011D031E
:10055000010D06011A03011C03010A06010900022C
:100560001E0000012000010E030243000000BC0039
:100570000BBE0029EF8DF084FFADF022E4CCF875BE
:10058000F008EF2FFFEE33FEEC33FCEE9DEC9840CD
:1005900005FCEE9DFE0FD5F0E9E4CEFD22EDF8F569
:1005A000F0EE8420D21CFEADF075F008EF2FFFEDC9
:1005B00033FD4007985006D5F0F222C398FD0FD5C1
:0305C000F0EA223C
:00000001FF
