:100000000202327590FFC2A6C2A722010DC0E0C055
:10001000F0C0D075D000C000C004C005C006C00745
:10002000758CA9758A6AC28CC2AF0519E519700270
:1000300005180510E5107002050FAE18AF197C0009
:100040007D647113ED4C7002B2B6C3E51994F4E50A
:100050001894014015751800751900E515D3940022
:1000600040021515E51570025116D2AFD28CD0079B
:10007000D006D005D004D000D0D0D0F0D0E032C22D
:10008000B6C2B7C2A0C2A1C2A2C2A3C2A4C2A5D214
:10009000A0D2A1D2A2D2A3D2A4D2A5D2B6D2B7E482
:1000A000F52CF52DE4F52EF52F052FE52F70020523
:1000B0002E6464452E70F2052DE52D7002052CB4DA
:1000C000E8E2E52CB403DDC2A0C2A1C2A2C2A3C271
:1000D000A4C2A5C2B6C2B7E4F50BAF0B74112FF8DA
:1000E000E6F515E4F50CAF0B31A2110321F6EFD3C1
:1000F000940940027F09EDD3940940027D0975906F
:10010000FFC2A6C2A774222FF8E6F590E4FFFEE432
:10011000FAFB0BBB00010AEB64644A70F50FBF00E9
:10012000010EEF64644E70E77590FFD2A6C2A7740B
:10013000222DF8E6F590E4FEFFE4FAFB0BBB00018C
:100140000AEB64644A70F50FBF00010EEF64644E61
:1001500070E722117FE50B14601514601414601908
:100160002403701D851531E5152512F530801780A3
:1001700008E5152514F53180038515318515308086
:1001800005E4F531F530E531D394094003753109C3
:10019000E530D394094003753009AD30AF3111EE2D
:1001A00080B3C2A0C2A1C2A2C2A3C2A4C2A5EF14BE
:1001B000600F14601114601324037014D2A2D2A330
:1001C00022D2A1D2A322D2A0D2A522D2A0D2A422EE
:1001D000D2A0D2A322E515D394035016E5159400BE
:1001E0004010750C01AE0FAF107C007DFA7113ED5D
:1001F0004C22E4F50C225389F0438901758CA975D2
:100200008A6AC28DD2A9D2B9D2AFD28CE4F518F5E0
:1002100019F50FF51022E50B045403F50BAF0B7421
:10022000112FF8E6F515AF0B31A2E4F50CD2B7C2E9
:10023000B722787FE4F6D8FD758131020279020198
:1002400053E493A3F8E493A34003F68001F208DF9C
:10025000F48029E493A3F85407240CC8C333C4548E
:100260000F4420C8834004F456800146F6DFE48042
:100270000B01020408102040809002BEE47E01932E
:1002800060BCA3FF543F30E509541FFEE493A36014
:10029000010ECF54C025E060A840B8E493A3FAE46F
:1002A00093A3F8E493A3C8C582C8CAC583CAF0A3C0
:1002B000C8C582C8CAC583CADFE9DEE780BE0A2294
:1002C000C0F9A4B0999282F8809001310001300009
:1002D000010B00011503010C0002180000020F00C1
:1002E00000041103030303011702011600010803B0
:1002F000012106011B03011D03010D06011A030163
:100300001C03010A06010900021E00000120000171
:100310000E0300BC000BBE0029EF8DF084FFADF092
:1003200022E4CCF875F008EF2FFFEE33FEEC33FC3F
:10033000EE9DEC984005FCEE9DFE0FD5F0E9E4CE75
:10034000FD22EDF8F5F0EE8420D21CFEADF075F044
:1003500008EF2FFFED33FD4007985006D5F0F2224D
:08036000C398FD0FD5F0EA225D
:00000001FF
