:07000000020190110D80FECA
:10000B00017AC2B6C2B7C2A0C2A1C2A2C2A3C2A485
:10001B00C2A5D2A0D2A1D2A2D2A3D2A4D2A5D2B62B
:10002B00D2B7E4F513F514E4F515F5160516E51638
:10003B00700205156464451570F20514E514700221
:10004B000513B4E8E2E513B403DDC2A0C2A1C2A25A
:10005B00C2A3C2A4C2A5C2B6C2B7E4F508AF087466
:10006B000C2FF8E6F510E4F509AF0831212154C047
:10007B00E0C0F0C0D075D000C000C004C005C00601
:10008B00C007758CA9758A6A0512E51270020511F5
:10009B00050BE50B7002050AAE11AF127C007D64F7
:1000AB00511CED4C7002B2B6C3E51294F4E51194F9
:1000BB00014015751100751200E510D39400400234
:1000CB001510E51070023174D007D006D005D0049E
:1000DB00D000D0D0D0F0D0E032E510D39403503222
:1000EB00E5109400402C750901AE0AAF0B7C007D26
:1000FB00FA511CED4C701EE50814600D14600D14C4
:10010B00600D2403700FB2A222B2A122B2A522B2BB
:10011B00A422E4F50922C2A0C2A1C2A2C2A3C2A416
:10012B00C2A5EF14600F1460111460132403701434
:10013B00D2A2D2A322D2A1D2A322D2A0D2A522D2C2
:10014B00A0D2A422D2A0D2A3225389F04389017555
:10015B008CA9758A6AC28DD2A9D2B9D2AFD28CE4DE
:10016B00F511F512F50AF50B22E508045403F50811
:10017B00AF08740C2FF8E6F510AF083121E4F50940
:10018B00D2B7C2B722787FE4F6D8FD75811602018B
:10019B00D7020003E493A3F8E493A34003F6800192
:1001AB00F208DFF48029E493A3F85407240CC8C3A6
:1001BB0033C4540F4420C8834004F456800146F6E0
:1001CB00DFE4800B0102040810204080900271E4F0
:1001DB007E019360BCA3FF543F30E509541FFEE43E
:1001EB0093A360010ECF54C025E060A840B8E49300
:1001FB00A3FAE493A3F8E493A3C8C582C8CAC58342
:10020B00CAF0A3C8C582C8CAC583CADFE9DEE780C6
:10021B00BEBC000BBE0029EF8DF084FFADF022E4D5
:10022B00CCF875F008EF2FFFEE33FEEC33FCEE9DB0
:10023B00EC984005FCEE9DFE0FD5F0E9E4CEFD22D7
:10024B00EDF8F5F0EE8420D21CFEADF075F008EF62
:10025B002FFFED33FD4007985006D5F0F222C398DF
:10026B00FD0FD5F0EA220108000110190109000267
:0E027B00110000020A0000040C190319030010
:00000001FF
