:100000000202D17590FFC2A6C2A722010DC0E0C0B6
:10001000F0C0D075D000C000C004C005C006C00745
:10002000758CA9758A6AC28CC2AF0519E519700270
:1000300005180510E5107002050FAE18AF197C0009
:100040007D2171B6ED4C7002B2B6C3E5199421E57D
:100050001894004015751800751900E515D3940023
:1000600040021515E51570025164D2AFD28CD0074D
:10007000D006D005D004D000D0D0D0F0D0E032C22D
:10008000B6C2B7C2A0C2A1C2A2C2A3C2A4C2A511D5
:10009000037D097F0911E87FF47E0151807F0331E0
:1000A000B2D2A0D2A1D2A2D2A3D2A4D2A5D2B6D289
:1000B000B77FE87E035180C2A0C2A1C2A2C2A3C280
:1000C000A4C2A5C2B6C2B7E4F50BAF0B74112FF8EA
:1000D000E6F515E4F50CAF0B31F051447D087F08CF
:1000E00011E87F887E134180EFD3940940027F0995
:1000F000EDD3940940027D097590FFC2A6C2A77492
:10010000222FF8E6F590E4FFFEE4FAFB0BBB0001BA
:100110000AEB64324A70F50FBF00010EEF641E4E09
:1001200070E77590FFD2A6C2A774222DF8E6F5906D
:10013000E4FEFFE4FAFB0BBB00010AEB64324A70F9
:10014000F50FBF00010EEF641E4E70E722117FC253
:10015000AF850B2C85152DD2AFE52C1460151460DE
:10016000141460192403701D852D31E52D2512F519
:100170003080178008E52D2514F5318003852D3159
:10018000852D308005E4F531F530E531D394094013
:1001900003753109E530D394094003753009E4F55E
:1001A0002CE52CC3940550A7AD30AF3111E8052CD8
:1001B00080EFEFD3940940027F098F2EE52ED39470
:1001C000004022AD2EAF2E11E8E4F52FAD2EAF2E5C
:1001D00011E87F0A7E005180052FE52FC39421404E
:1001E000EB152E80D7E4FDFF11E87FD07E0741801C
:1001F000C2A0C2A1C2A2C2A3C2A4C2A5EF14600F32
:1002000014601114601324037014D2A2D2A322D25A
:10021000A1D2A322D2A0D2A522D2A0D2A422D2A01F
:10022000D2A322E515D394035016E515940040108F
:10023000750C01AE0FAF107C007DFA71B6ED4C224B
:10024000E4F50C225389F0438901758CA9758A6AFB
:10025000C28DD2A9D2B9D2AFD28CE4F518F519F576
:100260000FF51022E50B045403F50BAF0B74112F9F
:10027000F8E6F515AF0B31F0E4F50CD2B7C2B722B2
:10028000AD07AC06E4FBFAC3EB9DEA9C500951BBF9
:100290000BBB00010A80F0228F34E4F9E9C39534E6
:1002A00050097FE87E0351800980F122EF1FAC06E0
:1002B00070011E4C6004000080F22200007F027E6C
:1002C000C7DEFEDFFC22E4F532F53322AE32AF3377
:1002D00022787FE4F6D8FD75813402031802014DBF
:1002E000E493A3F8E493A34003F68001F208DFF45B
:1002F0008029E493A3F85407240CC8C333C4540FD3
:100300004420C8834004F456800146F6DFE4800BA5
:10031000010204081020408090035DE47E01936098
:10032000BCA3FF543F30E509541FFEE493A36001D2
:100330000ECF54C025E060A840B8E493A3FAE4933C
:10034000A3F8E493A3C8C582C8CAC583CAF0A3C8EA
:10035000C582C8CAC583CADFE9DEE780BE0A22C0FB
:10036000F9A4B0999282F880900131000130000127
:100370000B00011503010C0002180000020F000021
:10038000041103030303011702011600010803010E
:100390002106011B03011D03010D06011A03011CA7
:1003A00003010A06010900021E0000012000010EDF
:1003B000030232000000BC000BBE0029EF8DF08468
:1003C000FFADF022E4CCF875F008EF2FFFEE33FE1E
:1003D000EC33FCEE9DEC984005FCEE9DFE0FD5F055
:1003E000E9E4CEFD22EDF8F5F0EE8420D21CFEAD5E
:1003F000F075F008EF2FFFED33FD4007985006D55C
:0B040000F0F222C398FD0FD5F0EA22B5
:00000001FF
